{
	"data": {
		"bytecode": {
			"linkReferences": {},
			"object": "6080604052348015600e575f5ffd5b506101488061001c5f395ff3fe608060405260043610610028575f3560e01c80633ccfd60b1461002c578063b60d428814610042575b5f5ffd5b348015610037575f5ffd5b5061004061004c565b005b61004a61004e565b005b565b670de0b6b3a76400003411610098576040517f08c379a000000000000000000000000000000000000000000000000000000000815260040161008f906100f4565b60405180910390fd5b565b5f82825260208201905092915050565b7f596f75206e65656420746f207370656e64206d6f7265204554482100000000005f82015250565b5f6100de601b8361009a565b91506100e9826100aa565b602082019050919050565b5f6020820190508181035f83015261010b816100d2565b905091905056fea264697066735822122001c087d714b85f6581f5c9f5fec707e497c4193018645dc4a836dcee3a92549664736f6c634300081e0033",
			"opcodes": "PUSH1 0x80 PUSH1 0x40 MSTORE CALLVALUE DUP1 ISZERO PUSH1 0xE JUMPI PUSH0 PUSH0 REVERT JUMPDEST POP PUSH2 0x148 DUP1 PUSH2 0x1C PUSH0 CODECOPY PUSH0 RETURN INVALID PUSH1 0x80 PUSH1 0x40 MSTORE PUSH1 0x4 CALLDATASIZE LT PUSH2 0x28 JUMPI PUSH0 CALLDATALOAD PUSH1 0xE0 SHR DUP1 PUSH4 0x3CCFD60B EQ PUSH2 0x2C JUMPI DUP1 PUSH4 0xB60D4288 EQ PUSH2 0x42 JUMPI JUMPDEST PUSH0 PUSH0 REVERT JUMPDEST CALLVALUE DUP1 ISZERO PUSH2 0x37 JUMPI PUSH0 PUSH0 REVERT JUMPDEST POP PUSH2 0x40 PUSH2 0x4C JUMP JUMPDEST STOP JUMPDEST PUSH2 0x4A PUSH2 0x4E JUMP JUMPDEST STOP JUMPDEST JUMP JUMPDEST PUSH8 0xDE0B6B3A7640000 CALLVALUE GT PUSH2 0x98 JUMPI PUSH1 0x40 MLOAD PUSH32 0x8C379A000000000000000000000000000000000000000000000000000000000 DUP2 MSTORE PUSH1 0x4 ADD PUSH2 0x8F SWAP1 PUSH2 0xF4 JUMP JUMPDEST PUSH1 0x40 MLOAD DUP1 SWAP2 SUB SWAP1 REVERT JUMPDEST JUMP JUMPDEST PUSH0 DUP3 DUP3 MSTORE PUSH1 0x20 DUP3 ADD SWAP1 POP SWAP3 SWAP2 POP POP JUMP JUMPDEST PUSH32 0x596F75206E65656420746F207370656E64206D6F726520455448210000000000 PUSH0 DUP3 ADD MSTORE POP JUMP JUMPDEST PUSH0 PUSH2 0xDE PUSH1 0x1B DUP4 PUSH2 0x9A JUMP JUMPDEST SWAP2 POP PUSH2 0xE9 DUP3 PUSH2 0xAA JUMP JUMPDEST PUSH1 0x20 DUP3 ADD SWAP1 POP SWAP2 SWAP1 POP JUMP JUMPDEST PUSH0 PUSH1 0x20 DUP3 ADD SWAP1 POP DUP2 DUP2 SUB PUSH0 DUP4 ADD MSTORE PUSH2 0x10B DUP2 PUSH2 0xD2 JUMP JUMPDEST SWAP1 POP SWAP2 SWAP1 POP JUMP INVALID LOG2 PUSH5 0x6970667358 0x22 SLT KECCAK256 ADD 0xC0 DUP8 0xD7 EQ 0xB8 PUSH0 PUSH6 0x81F5C9F5FEC7 SMOD RETF SWAP8 0xC4 NOT ADDRESS XOR PUSH5 0x5DC4A836DC RETURNCONTRACT 0x3A SWAP3 SLOAD SWAP7 PUSH5 0x736F6C6343 STOP ADDMOD 0x1E STOP CALLER "
		},
		"gasEstimates": {
			"creation": {
				"codeDepositCost": "65600",
				"executionCost": "115",
				"totalCost": "65715"
			},
			"external": {
				"fund()": "425",
				"withdraw()": "121"
			}
		},
		"methodIdentifiers": {
			"fund()": "b60d4288",
			"withdraw()": "3ccfd60b"
		}
	},
	"abi": [
		{
			"inputs": [],
			"name": "fund",
			"outputs": [],
			"stateMutability": "payable",
			"type": "function"
		},
		{
			"inputs": [],
			"name": "withdraw",
			"outputs": [],
			"stateMutability": "nonpayable",
			"type": "function"
		}
	]
}